{
  "_format": "hh-sol-artifact-1",
  "contractName": "TokenSale",
  "sourceName": "contracts/TokenSaleContract.sol",
  "abi": [
    {
      "inputs": [
        {
          "internalType": "contract GemoneycoinToken",
          "name": "_tokenContract",
          "type": "address"
        },
        {
          "internalType": "uint256",
          "name": "_tokenPrice",
          "type": "uint256"
        }
      ],
      "stateMutability": "nonpayable",
      "type": "constructor"
    },
    {
      "anonymous": false,
      "inputs": [
        {
          "indexed": false,
          "internalType": "address",
          "name": "_buyer",
          "type": "address"
        },
        {
          "indexed": false,
          "internalType": "uint256",
          "name": "_amount",
          "type": "uint256"
        }
      ],
      "name": "Sell",
      "type": "event"
    },
    {
      "inputs": [
        {
          "internalType": "uint256",
          "name": "_numberOfTokens",
          "type": "uint256"
        }
      ],
      "name": "buyToken",
      "outputs": [],
      "stateMutability": "payable",
      "type": "function"
    },
    {
      "inputs": [],
      "name": "endSale",
      "outputs": [],
      "stateMutability": "nonpayable",
      "type": "function"
    },
    {
      "inputs": [],
      "name": "tokenPrice",
      "outputs": [
        {
          "internalType": "uint256",
          "name": "",
          "type": "uint256"
        }
      ],
      "stateMutability": "view",
      "type": "function"
    },
    {
      "inputs": [],
      "name": "tokenSold",
      "outputs": [
        {
          "internalType": "uint256",
          "name": "",
          "type": "uint256"
        }
      ],
      "stateMutability": "view",
      "type": "function"
    }
  ],
  "bytecode": "0x608060405234801561001057600080fd5b50604051610a15380380610a15833981810160405281019061003291906100eb565b336000806101000a81548173ffffffffffffffffffffffffffffffffffffffff021916908373ffffffffffffffffffffffffffffffffffffffff16021790555081600160006101000a81548173ffffffffffffffffffffffffffffffffffffffff021916908373ffffffffffffffffffffffffffffffffffffffff1602179055508060028190555050506101a3565b6000815190506100d081610175565b92915050565b6000815190506100e58161018c565b92915050565b600080604083850312156100fe57600080fd5b600061010c858286016100c1565b925050602061011d858286016100d6565b9150509250929050565b60006101328261014b565b9050919050565b600061014482610127565b9050919050565b600073ffffffffffffffffffffffffffffffffffffffff82169050919050565b6000819050919050565b61017e81610139565b811461018957600080fd5b50565b6101958161016b565b81146101a057600080fd5b50565b610863806101b26000396000f3fe60806040526004361061003f5760003560e01c80632d296bf114610044578063380d831b14610060578063519ee19e146100775780637ff9b596146100a2575b600080fd5b61005e600480360381019061005991906105a9565b6100cd565b005b34801561006c57600080fd5b506100756102bb565b005b34801561008357600080fd5b5061008c6104fe565b604051610099919061065d565b60405180910390f35b3480156100ae57600080fd5b506100b7610504565b6040516100c4919061065d565b60405180910390f35b6100d98160025461050a565b34146100e457600080fd5b80600160009054906101000a900473ffffffffffffffffffffffffffffffffffffffff1673ffffffffffffffffffffffffffffffffffffffff166370a08231306040518263ffffffff1660e01b81526004016101409190610619565b60206040518083038186803b15801561015857600080fd5b505afa15801561016c573d6000803e3d6000fd5b505050506040513d601f19601f8201168201806040525081019061019091906105d2565b101561019b57600080fd5b600160009054906101000a900473ffffffffffffffffffffffffffffffffffffffff1673ffffffffffffffffffffffffffffffffffffffff1663a9059cbb33670de0b6b3a7640000846101ee91906106ff565b6040518363ffffffff1660e01b815260040161020b929190610634565b602060405180830381600087803b15801561022557600080fd5b505af1158015610239573d6000803e3d6000fd5b505050506040513d601f19601f8201168201806040525081019061025d9190610580565b61026657600080fd5b80600360008282546102789190610678565b925050819055507f5e5e995ce3133561afceaa51a9a154d5db228cd7525d34df5185582c18d3df0933826040516102b0929190610634565b60405180910390a150565b60008054906101000a900473ffffffffffffffffffffffffffffffffffffffff1673ffffffffffffffffffffffffffffffffffffffff163373ffffffffffffffffffffffffffffffffffffffff161461031357600080fd5b600160009054906101000a900473ffffffffffffffffffffffffffffffffffffffff1673ffffffffffffffffffffffffffffffffffffffff1663a9059cbb60008054906101000a900473ffffffffffffffffffffffffffffffffffffffff16600160009054906101000a900473ffffffffffffffffffffffffffffffffffffffff1673ffffffffffffffffffffffffffffffffffffffff166370a08231306040518263ffffffff1660e01b81526004016103cd9190610619565b60206040518083038186803b1580156103e557600080fd5b505afa1580156103f9573d6000803e3d6000fd5b505050506040513d601f19601f8201168201806040525081019061041d91906105d2565b6040518363ffffffff1660e01b815260040161043a929190610634565b602060405180830381600087803b15801561045457600080fd5b505af1158015610468573d6000803e3d6000fd5b505050506040513d601f19601f8201168201806040525081019061048c9190610580565b61049557600080fd5b60008054906101000a900473ffffffffffffffffffffffffffffffffffffffff1673ffffffffffffffffffffffffffffffffffffffff166108fc479081150290604051600060405180830381858888f193505050501580156104fb573d6000803e3d6000fd5b50565b60035481565b60025481565b60008082148061053257508282838561052391906106ff565b92508261053091906106ce565b145b61053b57600080fd5b92915050565b600081519050610550816107ff565b92915050565b60008135905061056581610816565b92915050565b60008151905061057a81610816565b92915050565b60006020828403121561059257600080fd5b60006105a084828501610541565b91505092915050565b6000602082840312156105bb57600080fd5b60006105c984828501610556565b91505092915050565b6000602082840312156105e457600080fd5b60006105f28482850161056b565b91505092915050565b61060481610759565b82525050565b61061381610797565b82525050565b600060208201905061062e60008301846105fb565b92915050565b600060408201905061064960008301856105fb565b610656602083018461060a565b9392505050565b6000602082019050610672600083018461060a565b92915050565b600061068382610797565b915061068e83610797565b9250827fffffffffffffffffffffffffffffffffffffffffffffffffffffffffffffffff038211156106c3576106c26107a1565b5b828201905092915050565b60006106d982610797565b91506106e483610797565b9250826106f4576106f36107d0565b5b828204905092915050565b600061070a82610797565b915061071583610797565b9250817fffffffffffffffffffffffffffffffffffffffffffffffffffffffffffffffff048311821515161561074e5761074d6107a1565b5b828202905092915050565b600061076482610777565b9050919050565b60008115159050919050565b600073ffffffffffffffffffffffffffffffffffffffff82169050919050565b6000819050919050565b7f4e487b7100000000000000000000000000000000000000000000000000000000600052601160045260246000fd5b7f4e487b7100000000000000000000000000000000000000000000000000000000600052601260045260246000fd5b6108088161076b565b811461081357600080fd5b50565b61081f81610797565b811461082a57600080fd5b5056fea2646970667358221220ab018b92274d9c7a3ee4c875da57d3f997bd5620255c72599770353381e64fd664736f6c63430008000033",
  "linkReferences": {},
  "deployedLinkReferences": {}
}